:10000000758000E5B0FCEC54206002011202004E45
:0F0010000112EC54106002011E02009D011EEC53
:10001F0054086002012A0200E0012AEC5404600235
:10002F0001000201230100758004319F22758008B1
:0F003F00319F22758010319F22758020319F22C2
:10004E0074383170740C3170740131707480317089
:10005E00743C31707452317D7445317D744C317DF8
:10006E007445317D7441317D7453317D7445317DDC
:10007E0074C43170744F317D7442317D744A317D58
:0F008E007445317D7443317D7454317D020036E9
:10009D0074383170740C317074013170748031703A
:1000AD00743C31707447317D7452317D7449317DAA
:1000BD007450317D74C43170744F317D7442317D13
:1000CD00744A317D7445317D7443317D7454317D75
:0F00DD0002003C74383170740C31707401317052
:1000EC0074803170743C3170744D317D7430317D5D
:1000FC007456317D7445317D74C431707455317DC5
:10010C007450317D7457317D7441317D7452317D21
:0F011C007444317D02004274383170740C3170BC
:10012B007401317074803170743C3170744D317D59
:10013B007430317D7456317D7445317D74C43170AA
:10014B007442317D7441317D7443317D744B317D0B
:10015B007457317D7441317D7452317D7444317DDE
:0F016B0002004880FEF5A0C287C286D285C285F9
:10017A00318A22F5A0D287C286D285C285318A22E7
:10018A00C285C287D28675A0FFD285E5A020E7F096
:0F019A00C285C286227A0179FF78FFD8FED9FA92
:0301A900DAF62261
:00000001FF
